{
  "contractName": "TokenZendR",
  "abi": [
    {
      "inputs": [],
      "stateMutability": "nonpayable",
      "type": "constructor"
    },
    {
      "anonymous": false,
      "inputs": [
        {
          "indexed": true,
          "internalType": "address",
          "name": "previousOwner",
          "type": "address"
        },
        {
          "indexed": true,
          "internalType": "address",
          "name": "newOwner",
          "type": "address"
        }
      ],
      "name": "OwnershipTransferred",
      "type": "event"
    },
    {
      "anonymous": false,
      "inputs": [
        {
          "indexed": false,
          "internalType": "address",
          "name": "account",
          "type": "address"
        }
      ],
      "name": "Paused",
      "type": "event"
    },
    {
      "anonymous": false,
      "inputs": [
        {
          "indexed": true,
          "internalType": "address",
          "name": "from_",
          "type": "address"
        },
        {
          "indexed": true,
          "internalType": "address",
          "name": "to_",
          "type": "address"
        },
        {
          "indexed": false,
          "internalType": "uint256",
          "name": "amount_",
          "type": "uint256"
        }
      ],
      "name": "TransferFailed",
      "type": "event"
    },
    {
      "anonymous": false,
      "inputs": [
        {
          "indexed": true,
          "internalType": "address",
          "name": "from_",
          "type": "address"
        },
        {
          "indexed": true,
          "internalType": "address",
          "name": "to_",
          "type": "address"
        },
        {
          "indexed": false,
          "internalType": "uint256",
          "name": "amount_",
          "type": "uint256"
        }
      ],
      "name": "TransferSuccessful",
      "type": "event"
    },
    {
      "anonymous": false,
      "inputs": [
        {
          "indexed": false,
          "internalType": "address",
          "name": "account",
          "type": "address"
        }
      ],
      "name": "Unpaused",
      "type": "event"
    },
    {
      "inputs": [],
      "name": "ERC20Interface",
      "outputs": [
        {
          "internalType": "contract ERC20",
          "name": "",
          "type": "address"
        }
      ],
      "stateMutability": "view",
      "type": "function",
      "constant": true
    },
    {
      "inputs": [],
      "name": "owner",
      "outputs": [
        {
          "internalType": "address",
          "name": "",
          "type": "address"
        }
      ],
      "stateMutability": "view",
      "type": "function",
      "constant": true
    },
    {
      "inputs": [],
      "name": "paused",
      "outputs": [
        {
          "internalType": "bool",
          "name": "",
          "type": "bool"
        }
      ],
      "stateMutability": "view",
      "type": "function",
      "constant": true
    },
    {
      "inputs": [],
      "name": "renounceOwnership",
      "outputs": [],
      "stateMutability": "nonpayable",
      "type": "function"
    },
    {
      "inputs": [
        {
          "internalType": "string",
          "name": "",
          "type": "string"
        }
      ],
      "name": "tokens",
      "outputs": [
        {
          "internalType": "address",
          "name": "",
          "type": "address"
        }
      ],
      "stateMutability": "view",
      "type": "function",
      "constant": true
    },
    {
      "inputs": [
        {
          "internalType": "address",
          "name": "",
          "type": "address"
        },
        {
          "internalType": "uint256",
          "name": "",
          "type": "uint256"
        }
      ],
      "name": "transactionIndexesToSender",
      "outputs": [
        {
          "internalType": "uint256",
          "name": "",
          "type": "uint256"
        }
      ],
      "stateMutability": "view",
      "type": "function",
      "constant": true
    },
    {
      "inputs": [
        {
          "internalType": "uint256",
          "name": "",
          "type": "uint256"
        }
      ],
      "name": "transactions",
      "outputs": [
        {
          "internalType": "address",
          "name": "contract_",
          "type": "address"
        },
        {
          "internalType": "address",
          "name": "to_",
          "type": "address"
        },
        {
          "internalType": "uint256",
          "name": "amount_",
          "type": "uint256"
        },
        {
          "internalType": "bool",
          "name": "failed_",
          "type": "bool"
        }
      ],
      "stateMutability": "view",
      "type": "function",
      "constant": true
    },
    {
      "inputs": [
        {
          "internalType": "address",
          "name": "newOwner",
          "type": "address"
        }
      ],
      "name": "transferOwnership",
      "outputs": [],
      "stateMutability": "nonpayable",
      "type": "function"
    },
    {
      "stateMutability": "payable",
      "type": "receive",
      "payable": true
    },
    {
      "inputs": [
        {
          "internalType": "string",
          "name": "symbol_",
          "type": "string"
        },
        {
          "internalType": "address",
          "name": "address_",
          "type": "address"
        }
      ],
      "name": "addNewToken",
      "outputs": [
        {
          "internalType": "bool",
          "name": "",
          "type": "bool"
        }
      ],
      "stateMutability": "nonpayable",
      "type": "function"
    },
    {
      "inputs": [
        {
          "internalType": "string",
          "name": "symbol_",
          "type": "string"
        }
      ],
      "name": "removeToken",
      "outputs": [
        {
          "internalType": "bool",
          "name": "",
          "type": "bool"
        }
      ],
      "stateMutability": "nonpayable",
      "type": "function"
    },
    {
      "inputs": [
        {
          "internalType": "string",
          "name": "symbol_",
          "type": "string"
        },
        {
          "internalType": "address",
          "name": "to_",
          "type": "address"
        },
        {
          "internalType": "uint256",
          "name": "amount_",
          "type": "uint256"
        }
      ],
      "name": "transferTokens",
      "outputs": [],
      "stateMutability": "nonpayable",
      "type": "function"
    },
    {
      "inputs": [
        {
          "internalType": "address payable",
          "name": "beneficiary",
          "type": "address"
        }
      ],
      "name": "withdraw",
      "outputs": [],
      "stateMutability": "payable",
      "type": "function",
      "payable": true
    }
  ],
  "bytecode": "0x608060405234801561001057600080fd5b5060006100216100de60201b60201c565b9050806000806101000a81548173ffffffffffffffffffffffffffffffffffffffff021916908373ffffffffffffffffffffffffffffffffffffffff1602179055508073ffffffffffffffffffffffffffffffffffffffff16600073ffffffffffffffffffffffffffffffffffffffff167f8be0079c531659141344cd1fd0a4f28419497f9722a3daafe3b4186f6b6457e060405160405180910390a35060008060146101000a81548160ff0219169083151502179055506100e6565b600033905090565b611814806100f56000396000f3fe6080604052600436106100ab5760003560e01c80635c975abb116100645780635c975abb146104fc578063715018a6146105295780638da5cb5b146105405780639ace38c214610581578063c479643714610613578063f2fde38b14610682576100b2565b806304c2320b146100b75780631bbc4b83146101a95780631f455922146101ea5780632740728e146102c8578063432c919a146103c657806351cff8d9146104b8576100b2565b366100b257005b600080fd5b3480156100c357600080fd5b5061017d600480360360208110156100da57600080fd5b81019080803590602001906401000000008111156100f757600080fd5b82018360208201111561010957600080fd5b8035906020019184600183028401116401000000008311171561012b57600080fd5b91908080601f016020809104026020016040519081016040528093929190818152602001838380828437600081840152601f19601f8201169050808301925050505050505091929192905050506106d3565b604051808273ffffffffffffffffffffffffffffffffffffffff16815260200191505060405180910390f35b3480156101b557600080fd5b506101be61071c565b604051808273ffffffffffffffffffffffffffffffffffffffff16815260200191505060405180910390f35b3480156101f657600080fd5b506102b06004803603602081101561020d57600080fd5b810190808035906020019064010000000081111561022a57600080fd5b82018360208201111561023c57600080fd5b8035906020019184600183028401116401000000008311171561025e57600080fd5b91908080601f016020809104026020016040519081016040528093929190818152602001838380828437600081840152601f19601f820116905080830192505050505050509192919290505050610742565b60405180821515815260200191505060405180910390f35b3480156102d457600080fd5b506103ae600480360360408110156102eb57600080fd5b810190808035906020019064010000000081111561030857600080fd5b82018360208201111561031a57600080fd5b8035906020019184600183028401116401000000008311171561033c57600080fd5b91908080601f016020809104026020016040519081016040528093929190818152602001838380828437600081840152601f19601f820116905080830192505050505050509192919290803573ffffffffffffffffffffffffffffffffffffffff169060200190929190505050610964565b60405180821515815260200191505060405180910390f35b3480156103d257600080fd5b506104b6600480360360608110156103e957600080fd5b810190808035906020019064010000000081111561040657600080fd5b82018360208201111561041857600080fd5b8035906020019184600183028401116401000000008311171561043a57600080fd5b91908080601f016020809104026020016040519081016040528093929190818152602001838380828437600081840152601f19601f820116905080830192505050505050509192919290803573ffffffffffffffffffffffffffffffffffffffff16906020019092919080359060200190929190505050610ae0565b005b6104fa600480360360208110156104ce57600080fd5b81019080803573ffffffffffffffffffffffffffffffffffffffff169060200190929190505050611193565b005b34801561050857600080fd5b50610511611328565b60405180821515815260200191505060405180910390f35b34801561053557600080fd5b5061053e61133e565b005b34801561054c57600080fd5b506105556114c4565b604051808273ffffffffffffffffffffffffffffffffffffffff16815260200191505060405180910390f35b34801561058d57600080fd5b506105ba600480360360208110156105a457600080fd5b81019080803590602001909291905050506114ed565b604051808573ffffffffffffffffffffffffffffffffffffffff1681526020018473ffffffffffffffffffffffffffffffffffffffff168152602001838152602001821515815260200194505050505060405180910390f35b34801561061f57600080fd5b5061066c6004803603604081101561063657600080fd5b81019080803573ffffffffffffffffffffffffffffffffffffffff16906020019092919080359060200190929190505050611577565b6040518082815260200191505060405180910390f35b34801561068e57600080fd5b506106d1600480360360208110156106a557600080fd5b81019080803573ffffffffffffffffffffffffffffffffffffffff1690602001909291905050506115a5565b005b6003818051602081018201805184825260208301602085012081835280955050505050506000915054906101000a900473ffffffffffffffffffffffffffffffffffffffff1681565b600460009054906101000a900473ffffffffffffffffffffffffffffffffffffffff1681565b600061074c6117b0565b73ffffffffffffffffffffffffffffffffffffffff1660008054906101000a900473ffffffffffffffffffffffffffffffffffffffff1673ffffffffffffffffffffffffffffffffffffffff161461080c576040517f08c379a00000000000000000000000000000000000000000000000000000000081526004018080602001828103825260208152602001807f4f776e61626c653a2063616c6c6572206973206e6f7420746865206f776e657281525060200191505060405180910390fd5b600073ffffffffffffffffffffffffffffffffffffffff166003836040518082805190602001908083835b6020831061085a5780518252602082019150602081019050602083039250610837565b6001836020036101000a038019825116818451168082178552505050505050905001915050908152602001604051809103902060009054906101000a900473ffffffffffffffffffffffffffffffffffffffff1673ffffffffffffffffffffffffffffffffffffffff1614156108cf57600080fd5b6003826040518082805190602001908083835b6020831061090557805182526020820191506020810190506020830392506108e2565b6001836020036101000a038019825116818451168082178552505050505050905001915050908152602001604051809103902060006101000a81549073ffffffffffffffffffffffffffffffffffffffff021916905560019050919050565b600061096e6117b0565b73ffffffffffffffffffffffffffffffffffffffff1660008054906101000a900473ffffffffffffffffffffffffffffffffffffffff1673ffffffffffffffffffffffffffffffffffffffff1614610a2e576040517f08c379a00000000000000000000000000000000000000000000000000000000081526004018080602001828103825260208152602001807f4f776e61626c653a2063616c6c6572206973206e6f7420746865206f776e657281525060200191505060405180910390fd5b816003846040518082805190602001908083835b60208310610a655780518252602082019150602081019050602083039250610a42565b6001836020036101000a038019825116818451168082178552505050505050905001915050908152602001604051809103902060006101000a81548173ffffffffffffffffffffffffffffffffffffffff021916908373ffffffffffffffffffffffffffffffffffffffff1602179055506001905092915050565b600060149054906101000a900460ff1615610b63576040517f08c379a00000000000000000000000000000000000000000000000000000000081526004018080602001828103825260108152602001807f5061757361626c653a207061757365640000000000000000000000000000000081525060200191505060405180910390fd5b600073ffffffffffffffffffffffffffffffffffffffff166003846040518082805190602001908083835b60208310610bb15780518252602082019150602081019050602083039250610b8e565b6001836020036101000a038019825116818451168082178552505050505050905001915050908152602001604051809103902060009054906101000a900473ffffffffffffffffffffffffffffffffffffffff1673ffffffffffffffffffffffffffffffffffffffff161415610c2657600080fd5b60008111610c3357600080fd5b60006003846040518082805190602001908083835b60208310610c6b5780518252602082019150602081019050602083039250610c48565b6001836020036101000a038019825116818451168082178552505050505050905001915050908152602001604051809103902060009054906101000a900473ffffffffffffffffffffffffffffffffffffffff169050600033905081600460006101000a81548173ffffffffffffffffffffffffffffffffffffffff021916908373ffffffffffffffffffffffffffffffffffffffff160217905550600260405180608001604052808473ffffffffffffffffffffffffffffffffffffffff1681526020018673ffffffffffffffffffffffffffffffffffffffff16815260200185815260200160011515815250908060018154018082558091505060019003906000526020600020906004020160009091909190915060008201518160000160006101000a81548173ffffffffffffffffffffffffffffffffffffffff021916908373ffffffffffffffffffffffffffffffffffffffff16021790555060208201518160010160006101000a81548173ffffffffffffffffffffffffffffffffffffffff021916908373ffffffffffffffffffffffffffffffffffffffff1602179055506040820151816002015560608201518160030160006101000a81548160ff021916908315150217905550505060006001600280549050039050600160008373ffffffffffffffffffffffffffffffffffffffff1673ffffffffffffffffffffffffffffffffffffffff168152602001908152602001600020819080600181540180825580915050600190039060005260206000200160009091909190915055600460009054906101000a900473ffffffffffffffffffffffffffffffffffffffff1673ffffffffffffffffffffffffffffffffffffffff1663dd62ed3e83306040518363ffffffff1660e01b8152600401808373ffffffffffffffffffffffffffffffffffffffff1681526020018273ffffffffffffffffffffffffffffffffffffffff1681526020019250505060206040518083038186803b158015610f5657600080fd5b505afa158015610f6a573d6000803e3d6000fd5b505050506040513d6020811015610f8057600080fd5b8101908080519060200190929190505050841115611002578473ffffffffffffffffffffffffffffffffffffffff168273ffffffffffffffffffffffffffffffffffffffff167fbf182be802245e8ed88e4b8d3e4344c0863dd2a70334f089fd07265389306fcf866040518082815260200191505060405180910390a3600080fd5b600460009054906101000a900473ffffffffffffffffffffffffffffffffffffffff1673ffffffffffffffffffffffffffffffffffffffff166323b872dd8387876040518463ffffffff1660e01b8152600401808473ffffffffffffffffffffffffffffffffffffffff1681526020018373ffffffffffffffffffffffffffffffffffffffff1681526020018281526020019350505050602060405180830381600087803b1580156110b357600080fd5b505af11580156110c7573d6000803e3d6000fd5b505050506040513d60208110156110dd57600080fd5b8101908080519060200190929190505050506000600282815481106110fe57fe5b906000526020600020906004020160030160006101000a81548160ff0219169083151502179055508473ffffffffffffffffffffffffffffffffffffffff168273ffffffffffffffffffffffffffffffffffffffff167fd6d3eb25a413c05d8107fc49deb2789bef7f612582b2482804c0b0423b6638ee866040518082815260200191505060405180910390a3505050505050565b61119b6117b0565b73ffffffffffffffffffffffffffffffffffffffff1660008054906101000a900473ffffffffffffffffffffffffffffffffffffffff1673ffffffffffffffffffffffffffffffffffffffff161461125b576040517f08c379a00000000000000000000000000000000000000000000000000000000081526004018080602001828103825260208152602001807f4f776e61626c653a2063616c6c6572206973206e6f7420746865206f776e657281525060200191505060405180910390fd5b600060149054906101000a900460ff16156112de576040517f08c379a00000000000000000000000000000000000000000000000000000000081526004018080602001828103825260108152602001807f5061757361626c653a207061757365640000000000000000000000000000000081525060200191505060405180910390fd5b8073ffffffffffffffffffffffffffffffffffffffff166108fc479081150290604051600060405180830381858888f19350505050158015611324573d6000803e3d6000fd5b5050565b60008060149054906101000a900460ff16905090565b6113466117b0565b73ffffffffffffffffffffffffffffffffffffffff1660008054906101000a900473ffffffffffffffffffffffffffffffffffffffff1673ffffffffffffffffffffffffffffffffffffffff1614611406576040517f08c379a00000000000000000000000000000000000000000000000000000000081526004018080602001828103825260208152602001807f4f776e61626c653a2063616c6c6572206973206e6f7420746865206f776e657281525060200191505060405180910390fd5b600073ffffffffffffffffffffffffffffffffffffffff1660008054906101000a900473ffffffffffffffffffffffffffffffffffffffff1673ffffffffffffffffffffffffffffffffffffffff167f8be0079c531659141344cd1fd0a4f28419497f9722a3daafe3b4186f6b6457e060405160405180910390a360008060006101000a81548173ffffffffffffffffffffffffffffffffffffffff021916908373ffffffffffffffffffffffffffffffffffffffff160217905550565b60008060009054906101000a900473ffffffffffffffffffffffffffffffffffffffff16905090565b600281815481106114fa57fe5b90600052602060002090600402016000915090508060000160009054906101000a900473ffffffffffffffffffffffffffffffffffffffff16908060010160009054906101000a900473ffffffffffffffffffffffffffffffffffffffff16908060020154908060030160009054906101000a900460ff16905084565b6001602052816000526040600020818154811061159057fe5b90600052602060002001600091509150505481565b6115ad6117b0565b73ffffffffffffffffffffffffffffffffffffffff1660008054906101000a900473ffffffffffffffffffffffffffffffffffffffff1673ffffffffffffffffffffffffffffffffffffffff161461166d576040517f08c379a00000000000000000000000000000000000000000000000000000000081526004018080602001828103825260208152602001807f4f776e61626c653a2063616c6c6572206973206e6f7420746865206f776e657281525060200191505060405180910390fd5b600073ffffffffffffffffffffffffffffffffffffffff168173ffffffffffffffffffffffffffffffffffffffff1614156116f3576040517f08c379a00000000000000000000000000000000000000000000000000000000081526004018080602001828103825260268152602001806117b96026913960400191505060405180910390fd5b8073ffffffffffffffffffffffffffffffffffffffff1660008054906101000a900473ffffffffffffffffffffffffffffffffffffffff1673ffffffffffffffffffffffffffffffffffffffff167f8be0079c531659141344cd1fd0a4f28419497f9722a3daafe3b4186f6b6457e060405160405180910390a3806000806101000a81548173ffffffffffffffffffffffffffffffffffffffff021916908373ffffffffffffffffffffffffffffffffffffffff16021790555050565b60003390509056fe4f776e61626c653a206e6577206f776e657220697320746865207a65726f2061646472657373a26469706673582212201320ea5963a2fbaf0f8aadb5cf915f464566814554308bb3554e2e249461768c64736f6c634300060c0033",
  "immutableReferences": {},
  "source": "// SPDX-License-Identifier: UNLICENSED\r\n\r\nimport \"../node_modules/openzeppelin-solidity/contracts/token/ERC20/ERC20.sol\";\r\nimport \"../node_modules/openzeppelin-solidity/contracts/access/Ownable.sol\";\r\nimport \"../node_modules/openzeppelin-solidity/contracts/utils/Pausable.sol\";\r\n\r\npragma solidity >=0.6.0 <0.7.0;\r\n\r\ncontract TokenZendR is Ownable, Pausable {\r\n    /**\r\n     * @dev Details of each transfer\r\n     * @param contract_ contract address of ER20 token to transfer\r\n     * @param to_ receiving account\r\n     * @param amount_ number of tokens to transfer to_ account\r\n     * @param failed_ if transfer was successful or not\r\n     */\r\n\r\n    struct Transfer {\r\n        address contract_;\r\n        address to_;\r\n        uint256 amount_;\r\n        bool failed_;\r\n    }\r\n\r\n    /**\r\n     * @dev a mapping from transaction ID's to the sender address\r\n     * that initiates them. Owners can create several transactions\r\n     */\r\n\r\n    mapping(address => uint256[]) public transactionIndexesToSender;\r\n\r\n    /**\r\n     * @dev a list of all transfers successful or unsuccessful\r\n     */\r\n\r\n    Transfer[] public transactions;\r\n\r\n    /**\r\n     * @dev list of all supported tokens for transfer\r\n     *  string token symbol\r\n     *  address contract address of token\r\n     */\r\n\r\n    mapping(string => address) public tokens;\r\n\r\n    ERC20 public ERC20Interface;\r\n\r\n    /**\r\n     * @dev Event to notify if transfer successful or failed\r\n     * after account approval verified */\r\n\r\n    event TransferSuccessful(\r\n        address indexed from_,\r\n        address indexed to_,\r\n        uint256 amount_\r\n    );\r\n\r\n    event TransferFailed(\r\n        address indexed from_,\r\n        address indexed to_,\r\n        uint256 amount_\r\n    );\r\n\r\n    constructor() public {}\r\n\r\n    /**\r\n     * @dev add address of token to list of supported tokens using\r\n     * token symbol as identifier in mapping */\r\n\r\n    function addNewToken(string memory symbol_, address address_)\r\n        public\r\n        onlyOwner\r\n        returns (bool)\r\n    {\r\n        tokens[symbol_] = address_;\r\n\r\n        return true;\r\n    }\r\n\r\n    /**\r\n     * @dev remove address of token we no more support */\r\n\r\n    function removeToken(string memory symbol_)\r\n        public\r\n        onlyOwner\r\n        returns (bool)\r\n    {\r\n        require(tokens[symbol_] != address(0));\r\n\r\n        delete (tokens[symbol_]);\r\n\r\n        return true;\r\n    }\r\n\r\n    /**\r\n     * @dev method that handles transfer of ERC20 tokens to other address\r\n     * it assumes the calling address has approved this contract\r\n     * as spender\r\n     * @param symbol_ identifier mapping to a token contract address\r\n     * @param to_ beneficiary address * @param amount_ numbers of token to transfer\r\n     */\r\n\r\n    function transferTokens(\r\n        string memory symbol_,\r\n        address to_,\r\n        uint256 amount_\r\n    ) public whenNotPaused {\r\n        require(tokens[symbol_] != address(0));\r\n        require(amount_ > 0);\r\n\r\n        address contract_ = tokens[symbol_];\r\n        address from_ = msg.sender;\r\n\r\n        ERC20Interface = ERC20(contract_);\r\n\r\n        transactions.push(\r\n            Transfer({\r\n                contract_: contract_,\r\n                to_: to_,\r\n                amount_: amount_,\r\n                failed_: true\r\n            })\r\n        );\r\n        \r\n        uint256 transactionId = transactions.length - 1;\r\n        transactionIndexesToSender[from_].push(transactionId);\r\n\r\n        if (amount_ > ERC20Interface.allowance(from_, address(this))) {\r\n            emit TransferFailed(from_, to_, amount_);\r\n            revert();\r\n        }\r\n        ERC20Interface.transferFrom(from_, to_, amount_);\r\n\r\n        transactions[transactionId].failed_ = false;\r\n\r\n        emit TransferSuccessful(from_, to_, amount_);\r\n    }\r\n\r\n    /**\r\n     * @dev allow contract to receive funds */\r\n\r\n    receive() external payable {}\r\n\r\n    /**\r\n     * @dev withdraw funds from this contract\r\n     * @param beneficiary address to receive ether\r\n     */\r\n\r\n    function withdraw(address payable beneficiary)\r\n        public\r\n        payable\r\n        onlyOwner\r\n        whenNotPaused\r\n    {\r\n        beneficiary.transfer(address(this).balance);\r\n    }\r\n}\r\n",
  "sourcePath": "E:/Programming/Programming_Projects/blockchain/full-stack/simple-decentralized-exchange_dapp/backend/contracts/TokenZendR.sol",
  "compiler": {
    "name": "solc",
    "version": "0.6.12+commit.27d51765.Emscripten.clang"
  },
  "schemaVersion": "3.2.5",
  "updatedAt": "2020-10-08T17:06:02.877Z",
  "networkType": "ethereum",
  "devdoc": {
    "events": {
      "TransferSuccessful(address,address,uint256)": {
        "details": "Event to notify if transfer successful or failed after account approval verified "
      }
    },
    "kind": "dev",
    "methods": {
      "addNewToken(string,address)": {
        "details": "add address of token to list of supported tokens using token symbol as identifier in mapping "
      },
      "owner()": {
        "details": "Returns the address of the current owner."
      },
      "paused()": {
        "details": "Returns true if the contract is paused, and false otherwise."
      },
      "removeToken(string)": {
        "details": "remove address of token we no more support "
      },
      "renounceOwnership()": {
        "details": "Leaves the contract without owner. It will not be possible to call `onlyOwner` functions anymore. Can only be called by the current owner. NOTE: Renouncing ownership will leave the contract without an owner, thereby removing any functionality that is only available to the owner."
      },
      "transferOwnership(address)": {
        "details": "Transfers ownership of the contract to a new account (`newOwner`). Can only be called by the current owner."
      },
      "transferTokens(string,address,uint256)": {
        "details": "method that handles transfer of ERC20 tokens to other address it assumes the calling address has approved this contract as spender",
        "params": {
          "symbol_": "identifier mapping to a token contract address",
          "to_": "beneficiary address * @param amount_ numbers of token to transfer"
        }
      },
      "withdraw(address)": {
        "details": "withdraw funds from this contract",
        "params": {
          "beneficiary": "address to receive ether"
        }
      }
    },
    "stateVariables": {
      "tokens": {
        "details": "list of all supported tokens for transfer  string token symbol  address contract address of token"
      },
      "transactionIndexesToSender": {
        "details": "a mapping from transaction ID's to the sender address that initiates them. Owners can create several transactions"
      },
      "transactions": {
        "details": "a list of all transfers successful or unsuccessful"
      }
    },
    "version": 1
  },
  "userdoc": {
    "kind": "user",
    "methods": {},
    "version": 1
  }
}